{
    "address": "0xFa5C61c57dc478d5f3dDcC5185CB118414C5E756",
    "abi": [
        {
            "inputs": [
                {
                    "internalType": "address",
                    "name": "_oft",
                    "type": "address"
                },
                {
                    "internalType": "uint64",
                    "name": "_hlIndexId",
                    "type": "uint64"
                },
                {
                    "internalType": "int8",
                    "name": "_assetDecimalDiff",
                    "type": "int8"
                },
                {
                    "internalType": "address",
                    "name": "_recoveryAddress",
                    "type": "address"
                }
            ],
            "stateMutability": "nonpayable",
            "type": "constructor"
        },
        {
            "inputs": [
                {
                    "internalType": "uint256",
                    "name": "length",
                    "type": "uint256"
                }
            ],
            "name": "ComposeMsgLengthNot64Bytes",
            "type": "error"
        },
        {
            "inputs": [],
            "name": "CoreUserNotActivated",
            "type": "error"
        },
        {
            "inputs": [
                {
                    "internalType": "bytes32",
                    "name": "guid",
                    "type": "bytes32"
                }
            ],
            "name": "FailedMessageNotFound",
            "type": "error"
        },
        {
            "inputs": [
                {
                    "internalType": "uint256",
                    "name": "gasLeft",
                    "type": "uint256"
                },
                {
                    "internalType": "uint256",
                    "name": "minGas",
                    "type": "uint256"
                }
            ],
            "name": "InsufficientGas",
            "type": "error"
        },
        {
            "inputs": [
                {
                    "internalType": "uint256",
                    "name": "msgValue",
                    "type": "uint256"
                },
                {
                    "internalType": "uint256",
                    "name": "requiredValue",
                    "type": "uint256"
                }
            ],
            "name": "InsufficientMsgValue",
            "type": "error"
        },
        {
            "inputs": [
                {
                    "internalType": "address",
                    "name": "internalOFTAddress",
                    "type": "address"
                },
                {
                    "internalType": "address",
                    "name": "receivedOFTAddress",
                    "type": "address"
                }
            ],
            "name": "InvalidComposeCaller",
            "type": "error"
        },
        {
            "inputs": [
                {
                    "internalType": "int8",
                    "name": "decimalDiff",
                    "type": "int8"
                },
                {
                    "internalType": "int8",
                    "name": "minDecimalDiff",
                    "type": "int8"
                },
                {
                    "internalType": "int8",
                    "name": "maxDecimalDiff",
                    "type": "int8"
                }
            ],
            "name": "InvalidDecimalDiff",
            "type": "error"
        },
        {
            "inputs": [],
            "name": "InvalidOFTAddress",
            "type": "error"
        },
        {
            "inputs": [
                {
                    "internalType": "uint256",
                    "name": "maxAmount",
                    "type": "uint256"
                },
                {
                    "internalType": "uint256",
                    "name": "requestedAmount",
                    "type": "uint256"
                }
            ],
            "name": "MaxRetrieveAmountExceeded",
            "type": "error"
        },
        {
            "inputs": [
                {
                    "internalType": "uint256",
                    "name": "amount",
                    "type": "uint256"
                }
            ],
            "name": "NativeTransferFailed",
            "type": "error"
        },
        {
            "inputs": [],
            "name": "NotRecoveryAddress",
            "type": "error"
        },
        {
            "inputs": [],
            "name": "OnlyEndpoint",
            "type": "error"
        },
        {
            "inputs": [
                {
                    "internalType": "address",
                    "name": "caller",
                    "type": "address"
                }
            ],
            "name": "OnlySelf",
            "type": "error"
        },
        {
            "inputs": [],
            "name": "ReentrancyGuardReentrantCall",
            "type": "error"
        },
        {
            "inputs": [
                {
                    "internalType": "address",
                    "name": "token",
                    "type": "address"
                }
            ],
            "name": "SafeERC20FailedOperation",
            "type": "error"
        },
        {
            "inputs": [
                {
                    "internalType": "address",
                    "name": "user",
                    "type": "address"
                },
                {
                    "internalType": "uint64",
                    "name": "tokenId",
                    "type": "uint64"
                }
            ],
            "name": "SpotBalanceReadFailed",
            "type": "error"
        },
        {
            "inputs": [
                {
                    "internalType": "uint256",
                    "name": "amt",
                    "type": "uint256"
                },
                {
                    "internalType": "uint256",
                    "name": "maxAmt",
                    "type": "uint256"
                }
            ],
            "name": "TransferAmtExceedsAssetBridgeBalance",
            "type": "error"
        },
        {
            "inputs": [],
            "name": "TransferFailed",
            "type": "error"
        },
        {
            "anonymous": false,
            "inputs": [],
            "name": "CompleteRefund",
            "type": "event"
        },
        {
            "anonymous": false,
            "inputs": [
                {
                    "indexed": true,
                    "internalType": "bytes32",
                    "name": "guid",
                    "type": "bytes32"
                },
                {
                    "indexed": false,
                    "internalType": "bytes32",
                    "name": "sender",
                    "type": "bytes32"
                },
                {
                    "indexed": false,
                    "internalType": "uint256",
                    "name": "msgValue",
                    "type": "uint256"
                },
                {
                    "indexed": false,
                    "internalType": "bytes",
                    "name": "composeMessage",
                    "type": "bytes"
                }
            ],
            "name": "FailedMessageDecode",
            "type": "event"
        },
        {
            "anonymous": false,
            "inputs": [
                {
                    "indexed": true,
                    "internalType": "address",
                    "name": "to",
                    "type": "address"
                },
                {
                    "indexed": false,
                    "internalType": "uint256",
                    "name": "amount",
                    "type": "uint256"
                }
            ],
            "name": "Recovered",
            "type": "event"
        },
        {
            "anonymous": false,
            "inputs": [
                {
                    "indexed": true,
                    "internalType": "address",
                    "name": "receiver",
                    "type": "address"
                },
                {
                    "indexed": true,
                    "internalType": "uint256",
                    "name": "amountERC20",
                    "type": "uint256"
                },
                {
                    "indexed": true,
                    "internalType": "uint256",
                    "name": "amountHYPE",
                    "type": "uint256"
                }
            ],
            "name": "RefundHyperEVM",
            "type": "event"
        },
        {
            "anonymous": false,
            "inputs": [
                {
                    "indexed": true,
                    "internalType": "bytes32",
                    "name": "guid",
                    "type": "bytes32"
                }
            ],
            "name": "RefundSuccessful",
            "type": "event"
        },
        {
            "anonymous": false,
            "inputs": [
                {
                    "indexed": true,
                    "internalType": "uint64",
                    "name": "coreIndexId",
                    "type": "uint64"
                },
                {
                    "indexed": false,
                    "internalType": "uint256",
                    "name": "amount",
                    "type": "uint256"
                },
                {
                    "indexed": true,
                    "internalType": "address",
                    "name": "to",
                    "type": "address"
                }
            ],
            "name": "Retrieved",
            "type": "event"
        },
        {
            "inputs": [],
            "name": "ENDPOINT",
            "outputs": [
                {
                    "internalType": "address",
                    "name": "",
                    "type": "address"
                }
            ],
            "stateMutability": "view",
            "type": "function"
        },
        {
            "inputs": [],
            "name": "ERC20",
            "outputs": [
                {
                    "internalType": "address",
                    "name": "",
                    "type": "address"
                }
            ],
            "stateMutability": "view",
            "type": "function"
        },
        {
            "inputs": [],
            "name": "ERC20_ASSET_BRIDGE",
            "outputs": [
                {
                    "internalType": "address",
                    "name": "",
                    "type": "address"
                }
            ],
            "stateMutability": "view",
            "type": "function"
        },
        {
            "inputs": [],
            "name": "ERC20_CORE_INDEX_ID",
            "outputs": [
                {
                    "internalType": "uint64",
                    "name": "",
                    "type": "uint64"
                }
            ],
            "stateMutability": "view",
            "type": "function"
        },
        {
            "inputs": [],
            "name": "ERC20_DECIMAL_DIFF",
            "outputs": [
                {
                    "internalType": "int8",
                    "name": "",
                    "type": "int8"
                }
            ],
            "stateMutability": "view",
            "type": "function"
        },
        {
            "inputs": [],
            "name": "FULL_TRANSFER",
            "outputs": [
                {
                    "internalType": "uint256",
                    "name": "",
                    "type": "uint256"
                }
            ],
            "stateMutability": "view",
            "type": "function"
        },
        {
            "inputs": [],
            "name": "MAX_DECIMAL_DIFF",
            "outputs": [
                {
                    "internalType": "int8",
                    "name": "",
                    "type": "int8"
                }
            ],
            "stateMutability": "view",
            "type": "function"
        },
        {
            "inputs": [],
            "name": "MIN_DECIMAL_DIFF",
            "outputs": [
                {
                    "internalType": "int8",
                    "name": "",
                    "type": "int8"
                }
            ],
            "stateMutability": "view",
            "type": "function"
        },
        {
            "inputs": [],
            "name": "MIN_GAS",
            "outputs": [
                {
                    "internalType": "uint256",
                    "name": "",
                    "type": "uint256"
                }
            ],
            "stateMutability": "nonpayable",
            "type": "function"
        },
        {
            "inputs": [],
            "name": "MIN_GAS_WITH_VALUE",
            "outputs": [
                {
                    "internalType": "uint256",
                    "name": "",
                    "type": "uint256"
                }
            ],
            "stateMutability": "nonpayable",
            "type": "function"
        },
        {
            "inputs": [],
            "name": "NATIVE_ASSET_BRIDGE",
            "outputs": [
                {
                    "internalType": "address",
                    "name": "",
                    "type": "address"
                }
            ],
            "stateMutability": "view",
            "type": "function"
        },
        {
            "inputs": [],
            "name": "NATIVE_CORE_INDEX_ID",
            "outputs": [
                {
                    "internalType": "uint64",
                    "name": "",
                    "type": "uint64"
                }
            ],
            "stateMutability": "view",
            "type": "function"
        },
        {
            "inputs": [],
            "name": "NATIVE_DECIMAL_DIFF",
            "outputs": [
                {
                    "internalType": "int8",
                    "name": "",
                    "type": "int8"
                }
            ],
            "stateMutability": "view",
            "type": "function"
        },
        {
            "inputs": [],
            "name": "OFT",
            "outputs": [
                {
                    "internalType": "address",
                    "name": "",
                    "type": "address"
                }
            ],
            "stateMutability": "view",
            "type": "function"
        },
        {
            "inputs": [],
            "name": "RECOVERY_ADDRESS",
            "outputs": [
                {
                    "internalType": "address",
                    "name": "",
                    "type": "address"
                }
            ],
            "stateMutability": "view",
            "type": "function"
        },
        {
            "inputs": [],
            "name": "SPOT_SEND_HEADER",
            "outputs": [
                {
                    "internalType": "bytes4",
                    "name": "",
                    "type": "bytes4"
                }
            ],
            "stateMutability": "view",
            "type": "function"
        },
        {
            "inputs": [],
            "name": "USDC_CORE_INDEX",
            "outputs": [
                {
                    "internalType": "uint64",
                    "name": "",
                    "type": "uint64"
                }
            ],
            "stateMutability": "view",
            "type": "function"
        },
        {
            "inputs": [],
            "name": "VALID_COMPOSE_MSG_LEN",
            "outputs": [
                {
                    "internalType": "uint256",
                    "name": "",
                    "type": "uint256"
                }
            ],
            "stateMutability": "view",
            "type": "function"
        },
        {
            "inputs": [
                {
                    "internalType": "address",
                    "name": "user",
                    "type": "address"
                }
            ],
            "name": "coreUserExists",
            "outputs": [
                {
                    "components": [
                        {
                            "internalType": "bool",
                            "name": "exists",
                            "type": "bool"
                        }
                    ],
                    "internalType": "struct CoreUserExists",
                    "name": "",
                    "type": "tuple"
                }
            ],
            "stateMutability": "view",
            "type": "function"
        },
        {
            "inputs": [
                {
                    "internalType": "bytes",
                    "name": "_composeMessage",
                    "type": "bytes"
                }
            ],
            "name": "decodeMessage",
            "outputs": [
                {
                    "internalType": "uint256",
                    "name": "minMsgValue",
                    "type": "uint256"
                },
                {
                    "internalType": "address",
                    "name": "to",
                    "type": "address"
                }
            ],
            "stateMutability": "pure",
            "type": "function"
        },
        {
            "inputs": [
                {
                    "internalType": "bytes32",
                    "name": "guid",
                    "type": "bytes32"
                }
            ],
            "name": "failedMessages",
            "outputs": [
                {
                    "components": [
                        {
                            "internalType": "uint32",
                            "name": "dstEid",
                            "type": "uint32"
                        },
                        {
                            "internalType": "bytes32",
                            "name": "to",
                            "type": "bytes32"
                        },
                        {
                            "internalType": "uint256",
                            "name": "amountLD",
                            "type": "uint256"
                        },
                        {
                            "internalType": "uint256",
                            "name": "minAmountLD",
                            "type": "uint256"
                        },
                        {
                            "internalType": "bytes",
                            "name": "extraOptions",
                            "type": "bytes"
                        },
                        {
                            "internalType": "bytes",
                            "name": "composeMsg",
                            "type": "bytes"
                        },
                        {
                            "internalType": "bytes",
                            "name": "oftCmd",
                            "type": "bytes"
                        }
                    ],
                    "internalType": "struct SendParam",
                    "name": "refundSendParam",
                    "type": "tuple"
                },
                {
                    "internalType": "uint256",
                    "name": "msgValue",
                    "type": "uint256"
                }
            ],
            "stateMutability": "view",
            "type": "function"
        },
        {
            "inputs": [
                {
                    "internalType": "address",
                    "name": "_to",
                    "type": "address"
                },
                {
                    "internalType": "uint256",
                    "name": "_amountLD",
                    "type": "uint256"
                }
            ],
            "name": "handleTransfersToHyperCore",
            "outputs": [],
            "stateMutability": "payable",
            "type": "function"
        },
        {
            "inputs": [
                {
                    "internalType": "address",
                    "name": "_oft",
                    "type": "address"
                },
                {
                    "internalType": "bytes32",
                    "name": "_guid",
                    "type": "bytes32"
                },
                {
                    "internalType": "bytes",
                    "name": "_message",
                    "type": "bytes"
                },
                {
                    "internalType": "address",
                    "name": "",
                    "type": "address"
                },
                {
                    "internalType": "bytes",
                    "name": "",
                    "type": "bytes"
                }
            ],
            "name": "lzCompose",
            "outputs": [],
            "stateMutability": "payable",
            "type": "function"
        },
        {
            "inputs": [
                {
                    "internalType": "uint64",
                    "name": "_coreIndexId",
                    "type": "uint64"
                },
                {
                    "internalType": "int8",
                    "name": "_decimalDiff",
                    "type": "int8"
                },
                {
                    "internalType": "address",
                    "name": "_bridgeAddress",
                    "type": "address"
                },
                {
                    "internalType": "uint256",
                    "name": "_amountLD",
                    "type": "uint256"
                }
            ],
            "name": "quoteHyperCoreAmount",
            "outputs": [
                {
                    "components": [
                        {
                            "internalType": "uint256",
                            "name": "evm",
                            "type": "uint256"
                        },
                        {
                            "internalType": "uint64",
                            "name": "core",
                            "type": "uint64"
                        },
                        {
                            "internalType": "uint64",
                            "name": "coreBalanceAssetBridge",
                            "type": "uint64"
                        }
                    ],
                    "internalType": "struct IHyperAssetAmount",
                    "name": "",
                    "type": "tuple"
                }
            ],
            "stateMutability": "view",
            "type": "function"
        },
        {
            "inputs": [
                {
                    "internalType": "uint256",
                    "name": "_evmAmount",
                    "type": "uint256"
                }
            ],
            "name": "recoverEvmERC20",
            "outputs": [],
            "stateMutability": "nonpayable",
            "type": "function"
        },
        {
            "inputs": [
                {
                    "internalType": "uint256",
                    "name": "_evmAmount",
                    "type": "uint256"
                }
            ],
            "name": "recoverEvmNative",
            "outputs": [],
            "stateMutability": "nonpayable",
            "type": "function"
        },
        {
            "inputs": [
                {
                    "internalType": "bytes32",
                    "name": "_guid",
                    "type": "bytes32"
                }
            ],
            "name": "refundToSrc",
            "outputs": [],
            "stateMutability": "payable",
            "type": "function"
        },
        {
            "inputs": [
                {
                    "internalType": "uint64",
                    "name": "_coreAmount",
                    "type": "uint64"
                }
            ],
            "name": "retrieveCoreERC20",
            "outputs": [],
            "stateMutability": "nonpayable",
            "type": "function"
        },
        {
            "inputs": [
                {
                    "internalType": "uint64",
                    "name": "_coreAmount",
                    "type": "uint64"
                }
            ],
            "name": "retrieveCoreHYPE",
            "outputs": [],
            "stateMutability": "nonpayable",
            "type": "function"
        },
        {
            "inputs": [
                {
                    "internalType": "uint64",
                    "name": "_coreAmount",
                    "type": "uint64"
                },
                {
                    "internalType": "address",
                    "name": "_to",
                    "type": "address"
                }
            ],
            "name": "retrieveCoreUSDC",
            "outputs": [],
            "stateMutability": "nonpayable",
            "type": "function"
        },
        {
            "inputs": [
                {
                    "internalType": "address",
                    "name": "user",
                    "type": "address"
                },
                {
                    "internalType": "uint64",
                    "name": "token",
                    "type": "uint64"
                }
            ],
            "name": "spotBalance",
            "outputs": [
                {
                    "components": [
                        {
                            "internalType": "uint64",
                            "name": "total",
                            "type": "uint64"
                        },
                        {
                            "internalType": "uint64",
                            "name": "hold",
                            "type": "uint64"
                        },
                        {
                            "internalType": "uint64",
                            "name": "entryNtl",
                            "type": "uint64"
                        }
                    ],
                    "internalType": "struct SpotBalance",
                    "name": "",
                    "type": "tuple"
                }
            ],
            "stateMutability": "view",
            "type": "function"
        },
        {
            "stateMutability": "payable",
            "type": "receive"
        }
    ],
    "transactionHash": "0xac07a814324387f6ccd33069ebb5495bcd36eec9720dd5bc40cfdabd817efe82",
    "args": [
        "0x579292c42356dd9907dFB2c25E59bbdEdB5b8dc9",
        351,
        10,
        "0x64C1d4388118fC4FdEd8943A59a86D03965575bC"
    ],
    "numDeployments": 1,
    "solcInputHash": "35cbb09d33ec4b9cfd91b7def3284194",
    "bytecode": "0x6101c06040523480156200001257600080fd5b50604051620030583803806200305883398101604081905262000035916200027e565b6001600055808484846001600160a01b038316620000665760405163c23419a560e01b815260040160405180910390fd5b600119600082900b12806200007f57506012600082900b135b15620000b75760405163470eb46160e01b8152600082900b600482015260011960248201526012604482015260640160405180910390fd5b826001600160a01b0316635e280f116040518163ffffffff1660e01b8152600401602060405180830381865afa158015620000f6573d6000803e3d6000fd5b505050506040513d601f19601f820116820180604052508101906200011c9190620002f7565b6001600160a01b03908116608052831660a0526000466103e714620001445761045162000147565b60965b73222222222222222222222222222222222222222260c052600a60e0526001600160401b0381166101005260a05160408051637e062a3560e11b815290519293506001600160a01b039091169163fc0c546a916004808201926020929091908290030181865afa158015620001c0573d6000803e3d6000fd5b505050506040513d601f19601f82011682018060405250810190620001e69190620002f7565b6001600160a01b031661012052620002076001600160401b03841662000244565b6001600160a01b039081166101405260009290920b61016052506001600160401b0390911661018052919091166101a05250620003409350505050565b60006200025f6001600160401b0383166001609d1b6200031e565b92915050565b6001600160a01b03811681146200027b57600080fd5b50565b600080600080608085870312156200029557600080fd5b8451620002a28162000265565b60208601519094506001600160401b0381168114620002c057600080fd5b8093505060408501518060000b8114620002d957600080fd5b6060860151909250620002ec8162000265565b939692955090935050565b6000602082840312156200030a57600080fd5b8151620003178162000265565b9392505050565b808201808211156200025f57634e487b7160e01b600052601160045260246000fd5b60805160a05160c05160e05161010051610120516101405161016051610180516101a051612b99620004bf6000396000818161039b0152818161073601528181610cb201528181610db701528181610dde01528181610e4e015281816113d401528181611428015281816114ba01526118d101526000818161070901528181610e9301528181610ee001528181610f3101528181611dad0152611e8f0152600081816105650152611dce0152600081816106d501528181610ebf01528181610f0701528181611def0152611e640152600081816105fb01528181610d1301528181610d9501528181611d7f0152611e410152600081816105990152818161077b015281816107c80152818161081901528181611ec10152611fd00152600081816104600152611ee2015260008181610367015281816107a7015281816107ef01528181611f030152611f440152600081816102d201528181610b7e0152818161157d01526115c101526000818161042c01526115330152612b996000f3fe6080604052600436106101dc5760003560e01c80639dbfb13f11610102578063cebb512011610095578063eff7f2fd11610064578063eff7f2fd1461069b578063f2f7141f146106b0578063f34ec5e0146106c3578063fa69dc7b146106f757600080fd5b8063cebb51201461063d578063d0a1026014610652578063d3af0cc114610665578063e648f9291461067b57600080fd5b8063b20bffdc116100d1578063b20bffdc14610587578063c37bcb4c146105d3578063cc4aa204146105e9578063ce362c051461061d57600080fd5b80639dbfb13f146104a2578063a4e7f8bd146104d3578063a69610d114610501578063a754403e1461055357600080fd5b806320d2c9511161017a578063643a114e11610149578063643a114e146103fa5780636fad06f51461041a57806371139d6c1461044e5780638d91e5621461048257600080fd5b806320d2c9511461033f578063574ad4a8146103555780635ab870b414610389578063634d45b2146103bd57600080fd5b806319180904116101b6578063191809041461025a5780631cd666901461026d5780631ed0993d146102c05780631f8164d91461030c57600080fd5b806301a29d9a146101e857806303a9437e1461020a57806317a15d4e1461023757600080fd5b366101e357005b600080fd5b3480156101f457600080fd5b506102086102033660046121ec565b61072b565b005b34801561021657600080fd5b5061021f601281565b60405160009190910b81526020015b60405180910390f35b34801561024357600080fd5b5061024c600081565b60405190815260200161022e565b610208610268366004612209565b61088b565b34801561027957600080fd5b5061028d610288366004612237565b610c2a565b60408051825181526020808401516001600160401b0390811691830191909152928201519092169082015260600161022e565b3480156102cc57600080fd5b506102f47f000000000000000000000000000000000000000000000000000000000000000081565b6040516001600160a01b03909116815260200161022e565b34801561031857600080fd5b506103266280000360e11b81565b6040516001600160e01b0319909116815260200161022e565b34801561034b57600080fd5b50620249f061024c565b34801561036157600080fd5b506102f47f000000000000000000000000000000000000000000000000000000000000000081565b34801561039557600080fd5b506102f47f000000000000000000000000000000000000000000000000000000000000000081565b3480156103c957600080fd5b506103dd6103d83660046122d7565b610c69565b604080519283526001600160a01b0390911660208301520161022e565b34801561040657600080fd5b50610208610415366004612209565b610ca7565b34801561042657600080fd5b506102f47f000000000000000000000000000000000000000000000000000000000000000081565b34801561045a57600080fd5b5061021f7f000000000000000000000000000000000000000000000000000000000000000081565b34801561048e57600080fd5b5061020861049d3660046121ec565b610e43565b3480156104ae57600080fd5b506104c26104bd366004612318565b610f97565b60405190511515815260200161022e565b3480156104df57600080fd5b506104f36104ee366004612209565b61109b565b60405161022e9291906123fb565b34801561050d57600080fd5b5061052161051c36600461241d565b6112a6565b6040805182516001600160401b039081168252602080850151821690830152928201519092169082015260600161022e565b34801561055f57600080fd5b5061021f7f000000000000000000000000000000000000000000000000000000000000000081565b34801561059357600080fd5b506105bb7f000000000000000000000000000000000000000000000000000000000000000081565b6040516001600160401b03909116815260200161022e565b3480156105df57600080fd5b5062030d4061024c565b3480156105f557600080fd5b506102f47f000000000000000000000000000000000000000000000000000000000000000081565b34801561062957600080fd5b50610208610638366004612209565b6113c9565b34801561064957600080fd5b5061024c604081565b610208610660366004612456565b611520565b34801561067157600080fd5b5061021f60011981565b34801561068757600080fd5b506102086106963660046124f6565b6118c6565b3480156106a757600080fd5b506105bb600081565b6102086106be366004612524565b611979565b3480156106cf57600080fd5b506102f47f000000000000000000000000000000000000000000000000000000000000000081565b34801561070357600080fd5b506105bb7f000000000000000000000000000000000000000000000000000000000000000081565b336001600160a01b037f00000000000000000000000000000000000000000000000000000000000000001614610774576040516320a6214d60e21b815260040160405180910390fd5b60006107a07f0000000000000000000000000000000000000000000000000000000000000000836119b7565b90506107ed7f00000000000000000000000000000000000000000000000000000000000000007f000000000000000000000000000000000000000000000000000000000000000083611a23565b7f00000000000000000000000000000000000000000000000000000000000000006001600160a01b03167f00000000000000000000000000000000000000000000000000000000000000006001600160401b03167f174ca337da6511fd085fea54a16895b8aa4cbb0cddbbeaae3a0f581d8f49f6c88360405161087f91906001600160401b0391909116815260200190565b60405180910390a35050565b6000818152600160208190526040808320815161012081018352815463ffffffff1692810192835292810154606084015260028101546080840152600381015460a0840152600481018054919284929091849160c0850191906108ed90612550565b80601f016020809104026020016040519081016040528092919081815260200182805461091990612550565b80156109665780601f1061093b57610100808354040283529160200191610966565b820191906000526020600020905b81548152906001019060200180831161094957829003601f168201915b5050505050815260200160058201805461097f90612550565b80601f01602080910402602001604051908101604052809291908181526020018280546109ab90612550565b80156109f85780601f106109cd576101008083540402835291602001916109f8565b820191906000526020600020905b8154815290600101906020018083116109db57829003601f168201915b50505050508152602001600682018054610a1190612550565b80601f0160208091040260200160405190810160405280929190818152602001828054610a3d90612550565b8015610a8a5780601f10610a5f57610100808354040283529160200191610a8a565b820191906000526020600020905b815481529060010190602001808311610a6d57829003601f168201915b5050509190925250505081526007919091015460209091015280515190915063ffffffff16600003610ad7576040516302e5218d60e21b8152600481018390526024015b60405180910390fd5b60008281526001602081905260408220805463ffffffff191681559081018290556002810182905560038101829055908181610b166004830182612181565b610b24600583016000612181565b610b32600683016000612181565b5050600782016000905550506000348260200151610b50919061259a565b825160408051808201825283815260006020820152905163c7c7f5b360e01b81529293506001600160a01b037f0000000000000000000000000000000000000000000000000000000000000000169263c7c7f5b3928592610bb59232906004016125ad565b60c06040518083038185885af1158015610bd3573d6000803e3d6000fd5b50505050506040513d601f19601f82011682018060405250810190610bf89190612678565b505060405183907fd41d02272333251e6367f747c63d5cc227dcac6b0c799067569e80a30f9da36990600090a2505050565b6040805160608101825260008082526020820181905291810182905290610c5184876112a6565b519050610c5f838287611afa565b9695505050505050565b60008060408314610c9057604051632b701db160e01b815260048101849052602401610ace565b610c9c838501856126e4565b909590945092505050565b336001600160a01b037f00000000000000000000000000000000000000000000000000000000000000001614610cf0576040516320a6214d60e21b815260040160405180910390fd5b60008115610cfe5781610d86565b6040516370a0823160e01b81523060048201527f00000000000000000000000000000000000000000000000000000000000000006001600160a01b0316906370a0823190602401602060405180830381865afa158015610d62573d6000803e3d6000fd5b505050506040513d601f19601f82011682018060405250810190610d869190612709565b9050610ddc6001600160a01b037f0000000000000000000000000000000000000000000000000000000000000000167f000000000000000000000000000000000000000000000000000000000000000083611b84565b7f00000000000000000000000000000000000000000000000000000000000000006001600160a01b03167f8c1256b8896378cd5044f80c202f9772b9d77dc85c8a6eb51967210b09bfaa2882604051610e3791815260200190565b60405180910390a25050565b336001600160a01b037f00000000000000000000000000000000000000000000000000000000000000001614610e8c576040516320a6214d60e21b815260040160405180910390fd5b6000610eb87f0000000000000000000000000000000000000000000000000000000000000000836119b7565b9050610f057f00000000000000000000000000000000000000000000000000000000000000007f000000000000000000000000000000000000000000000000000000000000000083611a23565b7f00000000000000000000000000000000000000000000000000000000000000006001600160a01b03167f00000000000000000000000000000000000000000000000000000000000000006001600160401b03167f174ca337da6511fd085fea54a16895b8aa4cbb0cddbbeaae3a0f581d8f49f6c88360405161087f91906001600160401b0391909116815260200190565b604080516020810190915260008152604080516001600160a01b03841660208201526000918291610810910160408051601f1981840301815290829052610fdd91612722565b600060405180830381855afa9150503d8060008114611018576040519150601f19603f3d011682016040523d82523d6000602084013e61101d565b606091505b50915091508161107f5760405162461bcd60e51b815260206004820152602760248201527f436f726520757365722065786973747320707265636f6d70696c652063616c6c6044820152660819985a5b195960ca1b6064820152608401610ace565b80806020019051810190611093919061273e565b949350505050565b600160208181526000928352604092839020835160e081018552815463ffffffff168152928101549183019190915260028101549282019290925260038201546060820152600482018054839160808401916110f690612550565b80601f016020809104026020016040519081016040528092919081815260200182805461112290612550565b801561116f5780601f106111445761010080835404028352916020019161116f565b820191906000526020600020905b81548152906001019060200180831161115257829003601f168201915b5050505050815260200160058201805461118890612550565b80601f01602080910402602001604051908101604052809291908181526020018280546111b490612550565b80156112015780601f106111d657610100808354040283529160200191611201565b820191906000526020600020905b8154815290600101906020018083116111e457829003601f168201915b5050505050815260200160068201805461121a90612550565b80601f016020809104026020016040519081016040528092919081815260200182805461124690612550565b80156112935780601f1061126857610100808354040283529160200191611293565b820191906000526020600020905b81548152906001019060200180831161127657829003601f168201915b5050509190925250505060079091015482565b6040805160608101825260008082526020820181905291810191909152604080516001600160a01b03851660208201526001600160401b0384169181019190915260009081906108019060600160408051601f198184030181529082905261130d91612722565b600060405180830381855afa9150503d8060008114611348576040519150601f19603f3d011682016040523d82523d6000602084013e61134d565b606091505b5091509150816113aa5760405162461bcd60e51b815260206004820152602260248201527f53706f7442616c616e636520707265636f6d70696c652063616c6c206661696c604482015261195960f21b6064820152608401610ace565b808060200190518101906113be919061278e565b925050505b92915050565b336001600160a01b037f00000000000000000000000000000000000000000000000000000000000000001614611412576040516320a6214d60e21b815260040160405180910390fd5b600081156114205781611422565b475b905060007f00000000000000000000000000000000000000000000000000000000000000006001600160a01b03168260405160006040518083038185875af1925050503d8060008114611491576040519150601f19603f3d011682016040523d82523d6000602084013e611496565b606091505b50509050806114b8576040516312171d8360e31b815260040160405180910390fd5b7f00000000000000000000000000000000000000000000000000000000000000006001600160a01b03167f8c1256b8896378cd5044f80c202f9772b9d77dc85c8a6eb51967210b09bfaa288360405161151391815260200190565b60405180910390a2505050565b611528611bdb565b336001600160a01b037f0000000000000000000000000000000000000000000000000000000000000000161461157157604051630fd72cd960e31b815260040160405180910390fd5b866001600160a01b03167f00000000000000000000000000000000000000000000000000000000000000006001600160a01b0316146115f657604051636459ab6360e11b81526001600160a01b037f00000000000000000000000000000000000000000000000000000000000000008116600483015288166024820152604401610ace565b60006116028686611c05565b905060006116108787611c1e565b6040516331a6a2d960e11b8152909150309063634d45b2906116369084906004016127e2565b6040805180830381865afa92505050801561166e575060408051601f3d908101601f1916820190925261166b918101906127f5565b60015b6117d4576116bb6040518060e00160405280600063ffffffff1681526020016000801916815260200160008152602001600081526020016060815260200160608152602001606081525090565b6116c58888611c69565b63ffffffff1681526116d78888611c8c565b602082810191909152604080830185905280518082018252838152348184015260008c815260018085529083902082518051825463ffffffff191663ffffffff909116178255948501519181019190915591830151600283015560608301516003830155608083015190929082906004820190611754908261286a565b5060a08201516005820190611769908261286a565b5060c0820151600682019061177e908261286a565b50505060208201518160070155905050887f387fc8f821460fa8221428c9f4dc1f6d5db4f6a0a01f33dbeaa8cebd95e5d144826020015134856040516117c693929190612929565b60405180910390a2506118b1565b813410156117fe57604051631f2dda7760e21b815234600482015260248101839052604401610ace565b600080341161181057620249f0611815565b62030d405b9050805a1015611844575a6040516323e228cb60e01b8152600481019190915260248101829052604401610ace565b60405163f2f7141f60e01b81526001600160a01b038316600482015260248101869052309063f2f7141f9034906044016000604051808303818588803b15801561188d57600080fd5b505af19350505050801561189f575060015b6118ad576118ad8286611c9c565b5050505b50506118bd6001600055565b50505050505050565b336001600160a01b037f0000000000000000000000000000000000000000000000000000000000000000161461190f576040516320a6214d60e21b815260040160405180910390fd5b600061191c6000846119b7565b905061192a82600083611a23565b6040516001600160401b03821681526001600160a01b038316906000907f174ca337da6511fd085fea54a16895b8aa4cbb0cddbbeaae3a0f581d8f49f6c89060200160405180910390a3505050565b33301461199a5760405162a19dbf60e81b8152336004820152602401610ace565b6119a48282611da6565b34156119b3576119b382611eba565b5050565b6000806119c430856112a6565b5190506001600160401b038082169084161115611a075760405163133c5d1160e31b81526001600160401b03808316600483015284166024820152604401610ace565b6001600160401b03831615611a1c5782611093565b9392505050565b604080516001600160a01b03851660208201526001600160401b038481168284015283166060808301919091528251808303909101815260808201909252600090611a7a906280000360e11b90849060a001612951565b60408051601f19818403018152908290526317938e1360e01b82529150733333333333333333333333333333333333333333906317938e1390611ac19084906004016127e2565b600060405180830381600087803b158015611adb57600080fd5b505af1158015611aef573d6000803e3d6000fd5b505050505050505050565b604080516060810182526000808252602082018190529181019190915260008060008460000b1315611b3b57611b31868686611ff9565b9092509050611b57565b611b518686611b4c87600019612982565b61207c565b90925090505b604080516060810182529283526001600160401b0391821660208401529085169082015290509392505050565b604080516001600160a01b038416602482015260448082018490528251808303909101815260649091019091526020810180516001600160e01b031663a9059cbb60e01b179052611bd69084906120e1565b505050565b600260005403611bfe57604051633ee5aeb560e01b815260040160405180910390fd5b6002600055565b6000611c15602c600c84866129a9565b611a1c916129d3565b6060611c2d82604c81866129a9565b8080601f016020809104026020016040519081016040528093929190818152602001838380828437600092019190915250929695505050505050565b6000611c79600c600884866129a9565b611c82916129f1565b60e01c9392505050565b6000611c15604c602c84866129a9565b3415611d6c576000826001600160a01b03163460405160006040518083038185875af1925050503d8060008114611cef576040519150601f19603f3d011682016040523d82523d6000602084013e611cf4565b606091505b5050905080611d6a57604051600090329034908381818185875af1925050503d8060008114611d3f576040519150601f19603f3d011682016040523d82523d6000602084013e611d44565b606091505b5050905080611d6857604051633ba3ce9960e11b8152346004820152602401610ace565b505b505b80156119b3576119b36001600160a01b037f0000000000000000000000000000000000000000000000000000000000000000168383611b84565b6000611e147f00000000000000000000000000000000000000000000000000000000000000007f00000000000000000000000000000000000000000000000000000000000000007f000000000000000000000000000000000000000000000000000000000000000085610c2a565b805190915015611bd6576000611e2e848360200151612152565b8251909150611e89906001600160a01b037f000000000000000000000000000000000000000000000000000000000000000016907f000000000000000000000000000000000000000000000000000000000000000090611b84565b611eb4847f000000000000000000000000000000000000000000000000000000000000000083611a23565b50505050565b6000611f287f00000000000000000000000000000000000000000000000000000000000000007f00000000000000000000000000000000000000000000000000000000000000007f000000000000000000000000000000000000000000000000000000000000000034610c2a565b8051909150156119b35780516040516000916001600160a01b037f000000000000000000000000000000000000000000000000000000000000000016918381818185875af1925050503d8060008114611f9d576040519150601f19603f3d011682016040523d82523d6000602084013e611fa2565b606091505b5050905080611fca578151604051633ba3ce9960e11b81526004810191909152602401610ace565b611bd6837f00000000000000000000000000000000000000000000000000000000000000008460200151611a23565b6000808061200884600a612b05565b9050600061201f826001600160401b038816612b14565b905081878161203057612030612b2b565b06870393508084111561206057604051639a0c830f60e01b81526004810185905260248101829052604401610ace565b81848161206f5761206f612b2b565b0492505050935093915050565b6000808061208b84600a612b05565b905060006120a2826001600160401b038816612b41565b9050869350808711156120d257604051639a0c830f60e01b81526004810185905260248101829052604401610ace565b81840292505050935093915050565b600080602060008451602086016000885af180612104576040513d6000823e3d81fd5b50506000513d9150811561211c578060011415612129565b6001600160a01b0384163b155b15611eb457604051635274afe760e01b81526001600160a01b0385166004820152602401610ace565b600061215d83610f97565b5161217b57604051635ee78a7560e11b815260040160405180910390fd5b50919050565b50805461218d90612550565b6000825580601f1061219d575050565b601f0160209004906000526020600020908101906121bb91906121be565b50565b5b808211156121d357600081556001016121bf565b5090565b6001600160401b03811681146121bb57600080fd5b6000602082840312156121fe57600080fd5b8135611a1c816121d7565b60006020828403121561221b57600080fd5b5035919050565b6001600160a01b03811681146121bb57600080fd5b6000806000806080858703121561224d57600080fd5b8435612258816121d7565b93506020850135600081900b811461226f57600080fd5b9250604085013561227f81612222565b9396929550929360600135925050565b60008083601f8401126122a157600080fd5b5081356001600160401b038111156122b857600080fd5b6020830191508360208285010111156122d057600080fd5b9250929050565b600080602083850312156122ea57600080fd5b82356001600160401b0381111561230057600080fd5b61230c8582860161228f565b90969095509350505050565b60006020828403121561232a57600080fd5b8135611a1c81612222565b60005b83811015612350578181015183820152602001612338565b50506000910152565b60008151808452612371816020860160208601612335565b601f01601f19169290920160200192915050565b63ffffffff81511682526020810151602083015260408101516040830152606081015160608301526000608082015160e060808501526123c860e0850182612359565b905060a083015184820360a08601526123e18282612359565b91505060c083015184820360c08601526113be8282612359565b60408152600061240e6040830185612385565b90508260208301529392505050565b6000806040838503121561243057600080fd5b823561243b81612222565b9150602083013561244b816121d7565b809150509250929050565b600080600080600080600060a0888a03121561247157600080fd5b873561247c81612222565b96506020880135955060408801356001600160401b038082111561249f57600080fd5b6124ab8b838c0161228f565b909750955060608a013591506124c082612222565b909350608089013590808211156124d657600080fd5b506124e38a828b0161228f565b989b979a50959850939692959293505050565b6000806040838503121561250957600080fd5b8235612514816121d7565b9150602083013561244b81612222565b6000806040838503121561253757600080fd5b823561254281612222565b946020939093013593505050565b600181811c9082168061256457607f821691505b60208210810361217b57634e487b7160e01b600052602260045260246000fd5b634e487b7160e01b600052601160045260246000fd5b808201808211156113c3576113c3612584565b6080815260006125c06080830186612385565b8451602084810191909152909401516040830152506001600160a01b0391909116606090910152919050565b634e487b7160e01b600052604160045260246000fd5b604051606081016001600160401b0381118282101715612624576126246125ec565b60405290565b60006040828403121561263c57600080fd5b604051604081018181106001600160401b038211171561265e5761265e6125ec565b604052825181526020928301519281019290925250919050565b60008082840360c081121561268c57600080fd5b608081121561269a57600080fd5b506126a3612602565b8351815260208401516126b5816121d7565b60208201526126c7856040860161262a565b604082015291506126db846080850161262a565b90509250929050565b600080604083850312156126f757600080fd5b82359150602083013561244b81612222565b60006020828403121561271b57600080fd5b5051919050565b60008251612734818460208701612335565b9190910192915050565b60006020828403121561275057600080fd5b604051602081018181106001600160401b0382111715612772576127726125ec565b6040528251801515811461278557600080fd5b81529392505050565b6000606082840312156127a057600080fd5b6127a8612602565b82516127b3816121d7565b815260208301516127c3816121d7565b602082015260408301516127d6816121d7565b60408201529392505050565b602081526000611a1c6020830184612359565b6000806040838503121561280857600080fd5b82519150602083015161244b81612222565b601f821115611bd6576000816000526020600020601f850160051c810160208610156128435750805b601f850160051c820191505b818110156128625782815560010161284f565b505050505050565b81516001600160401b03811115612883576128836125ec565b612897816128918454612550565b8461281a565b602080601f8311600181146128cc57600084156128b45750858301515b600019600386901b1c1916600185901b178555612862565b600085815260208120601f198616915b828110156128fb578886015182559484019460019091019084016128dc565b50858210156129195787850151600019600388901b60f8161c191681555b5050505050600190811b01905550565b8381528260208201526060604082015260006129486060830184612359565b95945050505050565b6001600160e01b0319831681528151600090612974816004850160208701612335565b919091016004019392505050565b60008260000b8260000b028060000b91508082146129a2576129a2612584565b5092915050565b600080858511156129b957600080fd5b838611156129c657600080fd5b5050820193919092039150565b803560208310156113c357600019602084900360031b1b1692915050565b6001600160e01b03198135818116916004851015612a195780818660040360031b1b83161692505b505092915050565b600181815b80851115612a5c578160001904821115612a4257612a42612584565b80851615612a4f57918102915b93841c9390800290612a26565b509250929050565b600082612a73575060016113c3565b81612a80575060006113c3565b8160018114612a965760028114612aa057612abc565b60019150506113c3565b60ff841115612ab157612ab1612584565b50506001821b6113c3565b5060208310610133831016604e8410600b8410161715612adf575081810a6113c3565b612ae98383612a21565b8060001904821115612afd57612afd612584565b029392505050565b6000611a1c60ff841683612a64565b80820281158282048414176113c3576113c3612584565b634e487b7160e01b600052601260045260246000fd5b600082612b5e57634e487b7160e01b600052601260045260246000fd5b50049056fea26469706673582212206e5efe9b8ddf95a0ffeccfe2ef1a63e34a3cc7e6c182e11fc2ff8dea311ba40864736f6c63430008160033",
    "devdoc": {
        "author": "LayerZero Labs (shankars99)",
        "details": "This contract is a composer that allows transfers of ERC20 and HYPE tokens to a target address on hypercore.This contract does NOT refund dust to the receiver because we do not expect any due to truncation of sharedDecimals.Incase of dust, you would have to implement dust refunds to the receiver in:      `_transferERC20ToHyperCore` and `_transferNativeToHyperCore`Disclaimer: If the token's evm total supply exceeds the asset bridge's balance when scaled to EVM, it is possible      that the composer will not be able to send the tokens to the receiver address on hypercore due to bridge consumption.      Tokens would instead be returned to the sender address on HyperEVM. Front-end handling is recommended.",
        "errors": {
            "ReentrancyGuardReentrantCall()": [
                {
                    "details": "Unauthorized reentrant call."
                }
            ],
            "SafeERC20FailedOperation(address)": [
                {
                    "details": "An operation with an ERC-20 token failed."
                }
            ]
        },
        "events": {
            "Recovered(address,uint256)": {
                "details": "Recovery is the process of pulling tokens from the composer on hyperevm to the recovery address"
            },
            "Retrieved(uint64,uint256,address)": {
                "details": "Retrieved is the process of moving tokens at the composer from HyperCore to HyperEVM"
            }
        },
        "kind": "dev",
        "methods": {
            "MIN_GAS()": {
                "details": "Minimum gas to be supplied to the composer contract for execution to prevent Out of Gas.This is used when the compose message does NOT have msg.value to send user funds to the receiver on core.This is the minimum gas amt for the compose operations which means the contract should be called with some more gas.",
                "returns": {
                    "_0": "The minimum gas amount"
                }
            },
            "MIN_GAS_WITH_VALUE()": {
                "details": "Minimum gas to be supplied to the composer contract for execution to prevent Out of Gas.This is used when the compose message has msg.value to send user funds to the receiver on core.This is the minimum gas amt for the compose operations which means the contract should be called with some more gas.",
                "returns": {
                    "_0": "The minimum gas amount"
                }
            },
            "constructor": {
                "params": {
                    "_assetDecimalDiff": "The difference in decimals between the HyperEVM's ERC20 and the HyperLiquid HIP-1 token                 (i.e. 18 decimals on evm and 6 on HyperLiquid would be 18 - 6 = 12)",
                    "_hlIndexId": "The HyperLiquid core spot's index value",
                    "_oft": "The address of the OFT",
                    "_recoveryAddress": "The address that will be authorized to perform recovery operations"
                }
            },
            "decodeMessage(bytes)": {
                "params": {
                    "_composeMessage": "The encoded compose message"
                },
                "returns": {
                    "minMsgValue": "- The minimum message value required",
                    "to": "- The receiver address"
                }
            },
            "handleTransfersToHyperCore(address,uint256)": {
                "details": "Transfers native and erc20 to HyperCore via asset bridge, then to receiver via CoreWriter. Returns dust to HyperEVM.If either fails then we complete refund the user on HyperEVMDefault behavior checks if the user is activated on HyperCore in ERC20 transfer, if not then revert this callIf the user requests for more funds than the asset bridge's balance we revert"
            },
            "lzCompose(address,bytes32,bytes,address,bytes)": {
                "details": "This composer is designed to handle refunds to source to an EOA address and NOT a contractIf the HyperCore receiver is a contract on hyperevm, it is expected that you can control token balance via CoreWriter",
                "params": {
                    "_message": "The encoded message content, expected to contain a composeMsg that decodes to type: (address receiver, uint256 msgValue)",
                    "_oft": "The address of the OFT contract."
                }
            },
            "quoteHyperCoreAmount(uint64,int8,address,uint256)": {
                "params": {
                    "_amountLD": "The number of tokens that the composer received (pre-dusted) that we are trying to send",
                    "_bridgeAddress": "The asset bridge address of the token to transfer",
                    "_coreIndexId": "The core index id of the token to transfer",
                    "_decimalDiff": "The decimal difference of evmDecimals - coreDecimals"
                },
                "returns": {
                    "_0": "IHyperAssetAmount - The amount of tokens to send to HyperCore (scaled on evm), dust (to be refunded), and the swap amount (of the tokens scaled on hypercore)"
                }
            },
            "recoverEvmERC20(uint256)": {
                "details": "Convenience function that recovers tokens to the recovery addressCan only be called by the recovery address",
                "params": {
                    "_evmAmount": "Amount of ERC20 tokens to recover in EVM decimals, or FULL_TRANSFER for all"
                }
            },
            "recoverEvmNative(uint256)": {
                "details": "Convenience function that recovers native tokens to the recovery addressCan only be called by the recovery address",
                "params": {
                    "_evmAmount": "Amount of native tokens to recover in wei, or FULL_TRANSFER for all"
                }
            },
            "refundToSrc(bytes32)": {
                "params": {
                    "_guid": "The GUID of the failed message to refund"
                }
            },
            "retrieveCoreERC20(uint64)": {
                "details": "Transfers tokens from the composer's HyperCore balance to the OFT asset bridgeCan only be called by the recovery address",
                "params": {
                    "_coreAmount": "Amount of tokens to retrieve in HyperCore decimals, or FULL_TRANSFER for all"
                }
            },
            "retrieveCoreHYPE(uint64)": {
                "details": "Transfers HYPE tokens from the composer's HyperCore balance to the HYPE asset bridgeCan only be called by the recovery address",
                "params": {
                    "_coreAmount": "Amount of HYPE tokens to retrieve in HyperCore decimals, or FULL_TRANSFER for all"
                }
            },
            "retrieveCoreUSDC(uint64,address)": {
                "details": "Transfers USDC tokens from the composer's HyperCore balance to the specified addressCan only be called by the recovery address",
                "params": {
                    "_coreAmount": "Amount of USDC tokens to retrieve in HyperCore decimals, or FULL_TRANSFER for all",
                    "_to": "Destination address to receive the retrieved USDC tokens"
                }
            }
        },
        "title": "HyperLiquidComposer_V1",
        "version": 1
    },
    "userdoc": {
        "errors": {
            "InsufficientGas(uint256,uint256)": [
                {
                    "notice": "----------------------------------- ERRORS -----------------------------------"
                }
            ]
        },
        "events": {
            "RefundSuccessful(bytes32)": {
                "notice": "----------------------------------- EVENTS -----------------------------------"
            }
        },
        "kind": "user",
        "methods": {
            "FULL_TRANSFER()": {
                "notice": "Constant indicating a full transfer of available balance"
            },
            "RECOVERY_ADDRESS()": {
                "notice": "Address authorized to perform recovery operations"
            },
            "USDC_CORE_INDEX()": {
                "notice": "Core index ID for USDC on HyperLiquid"
            },
            "constructor": {
                "notice": "Constructor for the HyperLiquidComposer"
            },
            "decodeMessage(bytes)": {
                "notice": "Decodes the compose message to extract minMsgValue and receiver address"
            },
            "lzCompose(address,bytes32,bytes,address,bytes)": {
                "notice": "Handles LayerZero compose operations for hypercore transfers with refund to source and refund on hyperevm functionality"
            },
            "quoteHyperCoreAmount(uint64,int8,address,uint256)": {
                "notice": "External function to quote the conversion of evm tokens to hypercore tokens"
            },
            "recoverEvmERC20(uint256)": {
                "notice": "Recovers ERC20 tokens from HyperEVM to the recovery address"
            },
            "recoverEvmNative(uint256)": {
                "notice": "Recovers native tokens from HyperEVM to the recovery address"
            },
            "refundToSrc(bytes32)": {
                "notice": "Refunds failed messages to the source chain"
            },
            "retrieveCoreERC20(uint64)": {
                "notice": "Retrieves ERC20 tokens from HyperCore back to the asset bridge address"
            },
            "retrieveCoreHYPE(uint64)": {
                "notice": "Retrieves HYPE tokens from HyperCore back to the HYPE asset bridge address"
            },
            "retrieveCoreUSDC(uint64,address)": {
                "notice": "Retrieves USDC tokens from HyperCore to a specified address"
            }
        },
        "version": 1
    },
    "storageLayout": {
        "storage": [
            {
                "astId": 3937,
                "contract": "contracts/HyperLiquidComposer_V1.sol:HyperLiquidComposer_V1",
                "label": "_status",
                "offset": 0,
                "slot": "0",
                "type": "t_uint256"
            },
            {
                "astId": 74,
                "contract": "contracts/HyperLiquidComposer_V1.sol:HyperLiquidComposer_V1",
                "label": "failedMessages",
                "offset": 0,
                "slot": "1",
                "type": "t_mapping(t_bytes32,t_struct(FailedMessage)1238_storage)"
            }
        ],
        "types": {
            "t_bytes32": {
                "encoding": "inplace",
                "label": "bytes32",
                "numberOfBytes": "32"
            },
            "t_bytes_storage": {
                "encoding": "bytes",
                "label": "bytes",
                "numberOfBytes": "32"
            },
            "t_mapping(t_bytes32,t_struct(FailedMessage)1238_storage)": {
                "encoding": "mapping",
                "key": "t_bytes32",
                "label": "mapping(bytes32 => struct FailedMessage)",
                "numberOfBytes": "32",
                "value": "t_struct(FailedMessage)1238_storage"
            },
            "t_struct(FailedMessage)1238_storage": {
                "encoding": "inplace",
                "label": "struct FailedMessage",
                "members": [
                    {
                        "astId": 1235,
                        "contract": "contracts/HyperLiquidComposer_V1.sol:HyperLiquidComposer_V1",
                        "label": "refundSendParam",
                        "offset": 0,
                        "slot": "0",
                        "type": "t_struct(SendParam)2798_storage"
                    },
                    {
                        "astId": 1237,
                        "contract": "contracts/HyperLiquidComposer_V1.sol:HyperLiquidComposer_V1",
                        "label": "msgValue",
                        "offset": 0,
                        "slot": "7",
                        "type": "t_uint256"
                    }
                ],
                "numberOfBytes": "256"
            },
            "t_struct(SendParam)2798_storage": {
                "encoding": "inplace",
                "label": "struct SendParam",
                "members": [
                    {
                        "astId": 2785,
                        "contract": "contracts/HyperLiquidComposer_V1.sol:HyperLiquidComposer_V1",
                        "label": "dstEid",
                        "offset": 0,
                        "slot": "0",
                        "type": "t_uint32"
                    },
                    {
                        "astId": 2787,
                        "contract": "contracts/HyperLiquidComposer_V1.sol:HyperLiquidComposer_V1",
                        "label": "to",
                        "offset": 0,
                        "slot": "1",
                        "type": "t_bytes32"
                    },
                    {
                        "astId": 2789,
                        "contract": "contracts/HyperLiquidComposer_V1.sol:HyperLiquidComposer_V1",
                        "label": "amountLD",
                        "offset": 0,
                        "slot": "2",
                        "type": "t_uint256"
                    },
                    {
                        "astId": 2791,
                        "contract": "contracts/HyperLiquidComposer_V1.sol:HyperLiquidComposer_V1",
                        "label": "minAmountLD",
                        "offset": 0,
                        "slot": "3",
                        "type": "t_uint256"
                    },
                    {
                        "astId": 2793,
                        "contract": "contracts/HyperLiquidComposer_V1.sol:HyperLiquidComposer_V1",
                        "label": "extraOptions",
                        "offset": 0,
                        "slot": "4",
                        "type": "t_bytes_storage"
                    },
                    {
                        "astId": 2795,
                        "contract": "contracts/HyperLiquidComposer_V1.sol:HyperLiquidComposer_V1",
                        "label": "composeMsg",
                        "offset": 0,
                        "slot": "5",
                        "type": "t_bytes_storage"
                    },
                    {
                        "astId": 2797,
                        "contract": "contracts/HyperLiquidComposer_V1.sol:HyperLiquidComposer_V1",
                        "label": "oftCmd",
                        "offset": 0,
                        "slot": "6",
                        "type": "t_bytes_storage"
                    }
                ],
                "numberOfBytes": "224"
            },
            "t_uint256": {
                "encoding": "inplace",
                "label": "uint256",
                "numberOfBytes": "32"
            },
            "t_uint32": {
                "encoding": "inplace",
                "label": "uint32",
                "numberOfBytes": "4"
            }
        }
    }
}